{
  "contractName": "NextContract",
  "abi": [
    {
      "inputs": [
        {
          "internalType": "bytes32",
          "name": "_root",
          "type": "bytes32"
        }
      ],
      "stateMutability": "nonpayable",
      "type": "constructor"
    },
    {
      "anonymous": false,
      "inputs": [
        {
          "indexed": true,
          "internalType": "address",
          "name": "owner",
          "type": "address"
        },
        {
          "indexed": true,
          "internalType": "address",
          "name": "spender",
          "type": "address"
        },
        {
          "indexed": false,
          "internalType": "uint256",
          "name": "value",
          "type": "uint256"
        }
      ],
      "name": "Approval",
      "type": "event"
    },
    {
      "anonymous": false,
      "inputs": [
        {
          "indexed": true,
          "internalType": "address",
          "name": "previousOwner",
          "type": "address"
        },
        {
          "indexed": true,
          "internalType": "address",
          "name": "newOwner",
          "type": "address"
        }
      ],
      "name": "OwnershipTransferred",
      "type": "event"
    },
    {
      "anonymous": false,
      "inputs": [
        {
          "indexed": true,
          "internalType": "address",
          "name": "from",
          "type": "address"
        },
        {
          "indexed": true,
          "internalType": "address",
          "name": "to",
          "type": "address"
        },
        {
          "indexed": false,
          "internalType": "uint256",
          "name": "value",
          "type": "uint256"
        }
      ],
      "name": "Transfer",
      "type": "event"
    },
    {
      "inputs": [
        {
          "internalType": "address",
          "name": "owner",
          "type": "address"
        },
        {
          "internalType": "address",
          "name": "spender",
          "type": "address"
        }
      ],
      "name": "allowance",
      "outputs": [
        {
          "internalType": "uint256",
          "name": "",
          "type": "uint256"
        }
      ],
      "stateMutability": "view",
      "type": "function"
    },
    {
      "inputs": [
        {
          "internalType": "address",
          "name": "spender",
          "type": "address"
        },
        {
          "internalType": "uint256",
          "name": "amount",
          "type": "uint256"
        }
      ],
      "name": "approve",
      "outputs": [
        {
          "internalType": "bool",
          "name": "",
          "type": "bool"
        }
      ],
      "stateMutability": "nonpayable",
      "type": "function"
    },
    {
      "inputs": [
        {
          "internalType": "address",
          "name": "account",
          "type": "address"
        }
      ],
      "name": "balanceOf",
      "outputs": [
        {
          "internalType": "uint256",
          "name": "",
          "type": "uint256"
        }
      ],
      "stateMutability": "view",
      "type": "function"
    },
    {
      "inputs": [],
      "name": "decimals",
      "outputs": [
        {
          "internalType": "uint8",
          "name": "",
          "type": "uint8"
        }
      ],
      "stateMutability": "view",
      "type": "function"
    },
    {
      "inputs": [
        {
          "internalType": "address",
          "name": "spender",
          "type": "address"
        },
        {
          "internalType": "uint256",
          "name": "subtractedValue",
          "type": "uint256"
        }
      ],
      "name": "decreaseAllowance",
      "outputs": [
        {
          "internalType": "bool",
          "name": "",
          "type": "bool"
        }
      ],
      "stateMutability": "nonpayable",
      "type": "function"
    },
    {
      "inputs": [
        {
          "internalType": "address",
          "name": "spender",
          "type": "address"
        },
        {
          "internalType": "uint256",
          "name": "addedValue",
          "type": "uint256"
        }
      ],
      "name": "increaseAllowance",
      "outputs": [
        {
          "internalType": "bool",
          "name": "",
          "type": "bool"
        }
      ],
      "stateMutability": "nonpayable",
      "type": "function"
    },
    {
      "inputs": [],
      "name": "name",
      "outputs": [
        {
          "internalType": "string",
          "name": "",
          "type": "string"
        }
      ],
      "stateMutability": "view",
      "type": "function"
    },
    {
      "inputs": [],
      "name": "owner",
      "outputs": [
        {
          "internalType": "address",
          "name": "",
          "type": "address"
        }
      ],
      "stateMutability": "view",
      "type": "function"
    },
    {
      "inputs": [],
      "name": "renounceOwnership",
      "outputs": [],
      "stateMutability": "nonpayable",
      "type": "function"
    },
    {
      "inputs": [],
      "name": "root",
      "outputs": [
        {
          "internalType": "bytes32",
          "name": "",
          "type": "bytes32"
        }
      ],
      "stateMutability": "view",
      "type": "function"
    },
    {
      "inputs": [],
      "name": "symbol",
      "outputs": [
        {
          "internalType": "string",
          "name": "",
          "type": "string"
        }
      ],
      "stateMutability": "view",
      "type": "function"
    },
    {
      "inputs": [],
      "name": "totalSupply",
      "outputs": [
        {
          "internalType": "uint256",
          "name": "",
          "type": "uint256"
        }
      ],
      "stateMutability": "view",
      "type": "function"
    },
    {
      "inputs": [
        {
          "internalType": "address",
          "name": "to",
          "type": "address"
        },
        {
          "internalType": "uint256",
          "name": "amount",
          "type": "uint256"
        }
      ],
      "name": "transfer",
      "outputs": [
        {
          "internalType": "bool",
          "name": "",
          "type": "bool"
        }
      ],
      "stateMutability": "nonpayable",
      "type": "function"
    },
    {
      "inputs": [
        {
          "internalType": "address",
          "name": "from",
          "type": "address"
        },
        {
          "internalType": "address",
          "name": "to",
          "type": "address"
        },
        {
          "internalType": "uint256",
          "name": "amount",
          "type": "uint256"
        }
      ],
      "name": "transferFrom",
      "outputs": [
        {
          "internalType": "bool",
          "name": "",
          "type": "bool"
        }
      ],
      "stateMutability": "nonpayable",
      "type": "function"
    },
    {
      "inputs": [
        {
          "internalType": "address",
          "name": "newOwner",
          "type": "address"
        }
      ],
      "name": "transferOwnership",
      "outputs": [],
      "stateMutability": "nonpayable",
      "type": "function"
    },
    {
      "inputs": [
        {
          "internalType": "address",
          "name": "to",
          "type": "address"
        },
        {
          "internalType": "address",
          "name": "reciever",
          "type": "address"
        },
        {
          "internalType": "bytes32[]",
          "name": "proof",
          "type": "bytes32[]"
        }
      ],
      "name": "mintToken",
      "outputs": [],
      "stateMutability": "nonpayable",
      "type": "function"
    },
    {
      "inputs": [
        {
          "internalType": "bytes32[]",
          "name": "proof",
          "type": "bytes32[]"
        },
        {
          "internalType": "bytes32",
          "name": "leaf",
          "type": "bytes32"
        }
      ],
      "name": "isValid",
      "outputs": [
        {
          "internalType": "bool",
          "name": "",
          "type": "bool"
        }
      ],
      "stateMutability": "view",
      "type": "function"
    }
  ],
  "bytecode": "0x60806040523480156200001157600080fd5b50604051620010db380380620010db833981016040819052620000349162000117565b604051806040016040528060118152602001702232bb37b724b9a0a232bb32b637b832b960791b815250604051806040016040528060048152602001634849524560e01b81525081600390816200008c9190620001d6565b5060046200009b8282620001d6565b505050620000b8620000b2620000c160201b60201c565b620000c5565b600655620002a2565b3390565b600580546001600160a01b038381166001600160a01b0319831681179093556040519116919082907f8be0079c531659141344cd1fd0a4f28419497f9722a3daafe3b4186f6b6457e090600090a35050565b6000602082840312156200012a57600080fd5b5051919050565b634e487b7160e01b600052604160045260246000fd5b600181811c908216806200015c57607f821691505b6020821081036200017d57634e487b7160e01b600052602260045260246000fd5b50919050565b601f821115620001d157600081815260208120601f850160051c81016020861015620001ac5750805b601f850160051c820191505b81811015620001cd57828155600101620001b8565b5050505b505050565b81516001600160401b03811115620001f257620001f262000131565b6200020a8162000203845462000147565b8462000183565b602080601f831160018114620002425760008415620002295750858301515b600019600386901b1c1916600185901b178555620001cd565b600085815260208120601f198616915b82811015620002735788860151825594840194600190910190840162000252565b5085821015620002925787850151600019600388901b60f8161c191681555b5050505050600190811b01905550565b610e2980620002b26000396000f3fe608060405234801561001057600080fd5b506004361061010b5760003560e01c8063715018a6116100a2578063a9059cbb11610071578063a9059cbb14610214578063b8a20ed014610227578063dd62ed3e1461023a578063ebf0c7171461024d578063f2fde38b1461025657600080fd5b8063715018a6146101d65780638da5cb5b146101de57806395d89b41146101f9578063a457c2d71461020157600080fd5b806323b872dd116100de57806323b872dd14610178578063313ce5671461018b578063395093511461019a57806370a08231146101ad57600080fd5b806306fdde0314610110578063095ea7b31461012e57806318160ddd1461015157806323183e4214610163575b600080fd5b610118610269565b6040516101259190610aef565b60405180910390f35b61014161013c366004610b59565b6102fb565b6040519015158152602001610125565b6002545b604051908152602001610125565b610176610171366004610c34565b610315565b005b610141610186366004610c92565b610404565b60405160128152602001610125565b6101416101a8366004610b59565b610428565b6101556101bb366004610cce565b6001600160a01b031660009081526020819052604090205490565b61017661044a565b6005546040516001600160a01b039091168152602001610125565b61011861045e565b61014161020f366004610b59565b61046d565b610141610222366004610b59565b6104e8565b610141610235366004610ce9565b6104f6565b610155610248366004610d2e565b61050c565b61015560065481565b610176610264366004610cce565b610537565b60606003805461027890610d61565b80601f01602080910402602001604051908101604052809291908181526020018280546102a490610d61565b80156102f15780601f106102c6576101008083540402835291602001916102f1565b820191906000526020600020905b8154815290600101906020018083116102d457829003601f168201915b5050505050905090565b6000336103098185856105b0565b60019150505b92915050565b6001600160a01b03831660009081526007602052604090205460ff16156103765760405162461bcd60e51b815260206004820152601060248201526f20b63932b0b23cafb1b630b4b6b2b21760811b60448201526064015b60405180910390fd5b6040516bffffffffffffffffffffffff19606085901b1660208201526103b6908290603401604051602081830303815290604052805190602001206104f6565b6103f45760405162461bcd60e51b815260206004820152600f60248201526e494e56414c49445f4144445245535360881b604482015260640161036d565b6103ff8260646106d4565b505050565b600033610412858285610793565b61041d85858561080d565b506001949350505050565b60003361030981858561043b838361050c565b6104459190610db1565b6105b0565b6104526109b1565b61045c6000610a0b565b565b60606004805461027890610d61565b6000338161047b828661050c565b9050838110156104db5760405162461bcd60e51b815260206004820152602560248201527f45524332303a2064656372656173656420616c6c6f77616e63652062656c6f77604482015264207a65726f60d81b606482015260840161036d565b61041d82868684036105b0565b60003361030981858561080d565b60006105058360065484610a5d565b9392505050565b6001600160a01b03918216600090815260016020908152604080832093909416825291909152205490565b61053f6109b1565b6001600160a01b0381166105a45760405162461bcd60e51b815260206004820152602660248201527f4f776e61626c653a206e6577206f776e657220697320746865207a65726f206160448201526564647265737360d01b606482015260840161036d565b6105ad81610a0b565b50565b6001600160a01b0383166106125760405162461bcd60e51b8152602060048201526024808201527f45524332303a20617070726f76652066726f6d20746865207a65726f206164646044820152637265737360e01b606482015260840161036d565b6001600160a01b0382166106735760405162461bcd60e51b815260206004820152602260248201527f45524332303a20617070726f766520746f20746865207a65726f206164647265604482015261737360f01b606482015260840161036d565b6001600160a01b0383811660008181526001602090815260408083209487168084529482529182902085905590518481527f8c5be1e5ebec7d5bd14f71427d1e84f3dd0314c0f7b2291e5b200ac8c7c3b925910160405180910390a3505050565b6001600160a01b03821661072a5760405162461bcd60e51b815260206004820152601f60248201527f45524332303a206d696e7420746f20746865207a65726f206164647265737300604482015260640161036d565b806002600082825461073c9190610db1565b90915550506001600160a01b038216600081815260208181526040808320805486019055518481527fddf252ad1be2c89b69c2b068fc378daa952ba7f163c4a11628f55a4df523b3ef910160405180910390a35050565b600061079f848461050c565b9050600019811461080757818110156107fa5760405162461bcd60e51b815260206004820152601d60248201527f45524332303a20696e73756666696369656e7420616c6c6f77616e6365000000604482015260640161036d565b61080784848484036105b0565b50505050565b6001600160a01b0383166108715760405162461bcd60e51b815260206004820152602560248201527f45524332303a207472616e736665722066726f6d20746865207a65726f206164604482015264647265737360d81b606482015260840161036d565b6001600160a01b0382166108d35760405162461bcd60e51b815260206004820152602360248201527f45524332303a207472616e7366657220746f20746865207a65726f206164647260448201526265737360e81b606482015260840161036d565b6001600160a01b0383166000908152602081905260409020548181101561094b5760405162461bcd60e51b815260206004820152602660248201527f45524332303a207472616e7366657220616d6f756e7420657863656564732062604482015265616c616e636560d01b606482015260840161036d565b6001600160a01b03848116600081815260208181526040808320878703905593871680835291849020805487019055925185815290927fddf252ad1be2c89b69c2b068fc378daa952ba7f163c4a11628f55a4df523b3ef910160405180910390a3610807565b6005546001600160a01b0316331461045c5760405162461bcd60e51b815260206004820181905260248201527f4f776e61626c653a2063616c6c6572206973206e6f7420746865206f776e6572604482015260640161036d565b600580546001600160a01b038381166001600160a01b0319831681179093556040519116919082907f8be0079c531659141344cd1fd0a4f28419497f9722a3daafe3b4186f6b6457e090600090a35050565b600082610a6a8584610a73565b14949350505050565b600081815b8451811015610ab857610aa482868381518110610a9757610a97610dc4565b6020026020010151610ac0565b915080610ab081610dda565b915050610a78565b509392505050565b6000818310610adc576000828152602084905260409020610505565b6000838152602083905260409020610505565b600060208083528351808285015260005b81811015610b1c57858101830151858201604001528201610b00565b506000604082860101526040601f19601f8301168501019250505092915050565b80356001600160a01b0381168114610b5457600080fd5b919050565b60008060408385031215610b6c57600080fd5b610b7583610b3d565b946020939093013593505050565b634e487b7160e01b600052604160045260246000fd5b600082601f830112610baa57600080fd5b8135602067ffffffffffffffff80831115610bc757610bc7610b83565b8260051b604051601f19603f83011681018181108482111715610bec57610bec610b83565b604052938452858101830193838101925087851115610c0a57600080fd5b83870191505b84821015610c2957813583529183019190830190610c10565b979650505050505050565b600080600060608486031215610c4957600080fd5b610c5284610b3d565b9250610c6060208501610b3d565b9150604084013567ffffffffffffffff811115610c7c57600080fd5b610c8886828701610b99565b9150509250925092565b600080600060608486031215610ca757600080fd5b610cb084610b3d565b9250610cbe60208501610b3d565b9150604084013590509250925092565b600060208284031215610ce057600080fd5b61050582610b3d565b60008060408385031215610cfc57600080fd5b823567ffffffffffffffff811115610d1357600080fd5b610d1f85828601610b99565b95602094909401359450505050565b60008060408385031215610d4157600080fd5b610d4a83610b3d565b9150610d5860208401610b3d565b90509250929050565b600181811c90821680610d7557607f821691505b602082108103610d9557634e487b7160e01b600052602260045260246000fd5b50919050565b634e487b7160e01b600052601160045260246000fd5b8082018082111561030f5761030f610d9b565b634e487b7160e01b600052603260045260246000fd5b600060018201610dec57610dec610d9b565b506001019056fea264697066735822122006e9140ba51dc2f2153640fffbc95a3bb2de4eda23cbe0f65cdcab1f0f2229ab64736f6c63430008110033",
  "immutableReferences": {},
  "source": "// SPDX-License-Identifier: MIT\npragma solidity ^0.8.4;\n\nimport \"@openzeppelin/contracts/token/ERC20/ERC20.sol\";\nimport \"@openzeppelin/contracts/access/Ownable.sol\";\nimport \"@openzeppelin/contracts/utils/cryptography/MerkleProof.sol\";\n\ncontract NextContract is ERC20, Ownable  {\n    //storage for root value passed into constructor\n    bytes32 public root;\n\n     // let address = \"0x...\" // The input  \n    // let hashedAddress = keccak256(address)\n    // let proof = merkleTree.getHexProof(hashedAddress)   \n\n     // address[] entireAllowList;\n     //default is falsae\n     mapping(address => bool)allowList;\n\n\n    constructor(bytes32 _root) ERC20(\"DevonIsADeveloper\", \"HIRE\") {\n        root = _root;\n    }\n\n    //generall the proof should be passed into the front end. Will add an example in this folder\n   \n\n     function mintToken(address to, address reciever, bytes32[] memory proof) external {\n        require(!allowList[to], 'Already_claimed.');\n        require(isValid(proof, keccak256(abi.encodePacked(to))), \"INVALID_ADDRESS\");\n        _mint(reciever, 100);\n    }\n\n \n  \n\n     function isValid(bytes32[] memory proof, bytes32 leaf) public view returns (bool) {\n        return MerkleProof.verify(proof, root, leaf);\n    }\n}",
  "sourcePath": "/Users/devonmartens/Task/ERC20-Merkle/contracts/NextContract.sol",
  "compiler": {
    "name": "solc",
    "version": "0.8.17+commit.8df45f5f.Emscripten.clang"
  },
  "schemaVersion": "3.4.11",
  "updatedAt": "2022-12-13T14:47:26.539Z",
  "devdoc": {
    "kind": "dev",
    "methods": {
      "allowance(address,address)": {
        "details": "See {IERC20-allowance}."
      },
      "approve(address,uint256)": {
        "details": "See {IERC20-approve}. NOTE: If `amount` is the maximum `uint256`, the allowance is not updated on `transferFrom`. This is semantically equivalent to an infinite approval. Requirements: - `spender` cannot be the zero address."
      },
      "balanceOf(address)": {
        "details": "See {IERC20-balanceOf}."
      },
      "decimals()": {
        "details": "Returns the number of decimals used to get its user representation. For example, if `decimals` equals `2`, a balance of `505` tokens should be displayed to a user as `5.05` (`505 / 10 ** 2`). Tokens usually opt for a value of 18, imitating the relationship between Ether and Wei. This is the value {ERC20} uses, unless this function is overridden; NOTE: This information is only used for _display_ purposes: it in no way affects any of the arithmetic of the contract, including {IERC20-balanceOf} and {IERC20-transfer}."
      },
      "decreaseAllowance(address,uint256)": {
        "details": "Atomically decreases the allowance granted to `spender` by the caller. This is an alternative to {approve} that can be used as a mitigation for problems described in {IERC20-approve}. Emits an {Approval} event indicating the updated allowance. Requirements: - `spender` cannot be the zero address. - `spender` must have allowance for the caller of at least `subtractedValue`."
      },
      "increaseAllowance(address,uint256)": {
        "details": "Atomically increases the allowance granted to `spender` by the caller. This is an alternative to {approve} that can be used as a mitigation for problems described in {IERC20-approve}. Emits an {Approval} event indicating the updated allowance. Requirements: - `spender` cannot be the zero address."
      },
      "name()": {
        "details": "Returns the name of the token."
      },
      "owner()": {
        "details": "Returns the address of the current owner."
      },
      "renounceOwnership()": {
        "details": "Leaves the contract without owner. It will not be possible to call `onlyOwner` functions anymore. Can only be called by the current owner. NOTE: Renouncing ownership will leave the contract without an owner, thereby removing any functionality that is only available to the owner."
      },
      "symbol()": {
        "details": "Returns the symbol of the token, usually a shorter version of the name."
      },
      "totalSupply()": {
        "details": "See {IERC20-totalSupply}."
      },
      "transfer(address,uint256)": {
        "details": "See {IERC20-transfer}. Requirements: - `to` cannot be the zero address. - the caller must have a balance of at least `amount`."
      },
      "transferFrom(address,address,uint256)": {
        "details": "See {IERC20-transferFrom}. Emits an {Approval} event indicating the updated allowance. This is not required by the EIP. See the note at the beginning of {ERC20}. NOTE: Does not update the allowance if the current allowance is the maximum `uint256`. Requirements: - `from` and `to` cannot be the zero address. - `from` must have a balance of at least `amount`. - the caller must have allowance for ``from``'s tokens of at least `amount`."
      },
      "transferOwnership(address)": {
        "details": "Transfers ownership of the contract to a new account (`newOwner`). Can only be called by the current owner."
      }
    },
    "version": 1
  },
  "userdoc": {
    "kind": "user",
    "methods": {},
    "version": 1
  }
}